:020000040800F2
:10000000E02A0020650200088736000881350008D4
:1000100085360008E71F0008413F00080000000087
:10002000000000000000000000000000913A0008FD
:10003000E91F00080000000089360008933A000814
:100040007F0200087F0200087F0200087F0200088C
:100050007F0200087F0200087F0200087F0200087C
:100060007F0200087F0200087F0200087F0200086C
:100070007F0200087F0200087F0200087F0200085C
:100080007F0200087F0200087F0200087F0200084C
:100090007F0200087F0200087F0200087F0200083C
:1000A0007F0200087F0200087F0200087F0200082C
:1000B0007F02000800000000000000007F0200082E
:1000C0007F02000800000000000000007F0200081E
:1000D000000000007F0200087F020008000000000E
:1000E0007F0200087F0200080000000000000000FE
:1000F0000000000000000000000000000000000000
:100100000000000000000000000000007F02000866
:1001100000000000000000007F0200087F020008CD
:100120007F0200087F0200087F0200087F020008AB
:100130007F02000800000000000000000000000036
:100140007F0200087F0200087F0200087F0200088B
:100150007F0200087F0200087F0200087F0200087B
:100160007F0200087F0200087F02000800000000F4
:100170007F0200087F02000800000000000000006D
:100180007F0200087F0200087F02000800F002F8EA
:1001900000F059F80AA090E8000C82448344AAF1C8
:1001A0000107DA4501D100F04EF8AFF2090EBAE8C6
:1001B0000F0013F0010F18BFFB1A43F0010318479B
:1001C000CC620000EC6200000A4410F8014B14F00D
:1001D0000F0508BF10F8015B240908BF10F8014B98
:1001E0006D1E05D010F8013B6D1E01F8013BF9D1E1
:1001F000641E03D0641E01F8015BFBD19142E4D37D
:10020000704700000023002400250026103A28BF74
:1002100078C1FBD8520728BF30C148BF0B60704778
:10022000642900F0C380002070471FB505F080FFEF
:100230009DE8030000F0FCFD00F0CAFA1FBD10B5F8
:1002400000F02FFB10BD00F0C9FB1146FFF7EDFFDA
:1002500004F072FB00F0B8FD03B4FFF7F0FF03BC3D
:1002600000F0CEFF0948804709480047FEE7FEE757
:10027000FEE7FEE7FEE7FEE7FEE7FEE7FEE7FEE756
:1002800004480549054A064B704700000D3B00082D
:100290008D010008E0240020E02A0020E026002054
:1002A000E026002053EA020C00F069802DE9F04BB3
:1002B0004FF00006002B1FBFB3FA83F503FA05F4D5
:1002C00024FA05F65E4012BF1643B2FA82F502FA2E
:1002D00005F4C5F120051EBF22FA05FC44EA0C0412
:1002E000203556EA044C4FEA144418BF641C4FF002
:1002F00000084FF00009904271EB030C39D300293C
:1003000019BFB1FA81F701FA07F6B0FA80F700FADF
:1003100007F6C7F120071EBF20FA07FC46EA0C06C5
:100320002037B6FBF4FCA7EB0507103F07F01F0BC7
:10033000CBF120060CFA0BFB2CFA06F644BFB346B1
:100340000026202FA4BF5E464FF0000B5BEA060C90
:1003500008BF4FF0010B19EB0B09ABFB027C48EB1C
:100360000608C01B06FB02CC0BFB03CC71EB0C0197
:10037000C1E70B46024641464846BDE8F08B13B53F
:100380004FF000004FF00001AFF30080BDE81C40CB
:10039000704700000FB4044910B503AA029800F09A
:1003A00065F910BC5DF814FB601B00202DE9F041DD
:1003B0000646002410687529314616A510D0AFF303
:1003C0000080002802DA404213A507E031688A075E
:1003D00001D512A502E0490704D511A5012401E0C9
:1003E000AFF3008000210A2206F1240709E0B0FBE8
:1003F000F2FCB0FBF2F302FB1C00303078541846DC
:10040000491C0028F3D123462A463046BDE8F04176
:1004100000F0D3B8000000002D0000002B00000009
:10042000200000002DE9F0474FF0000A89460446FD
:10043000C0F820A02046E1688847002876D025280B
:1004400006D0D4E901219047206A401C2062F1E7E0
:10045000E168204600258847C4F81CA0064600270E
:10046000C4F818A02A2E09D0304604F039F938B360
:1004700004EB8708303EC8F8186019E059F8041BEF
:10048000204604EB87029161E1688847012F064608
:1004900018D1E069002820DA25F020051DE0D8F801
:1004A000180000EB800006EB40003038C8F8180058
:1004B0002046E1688847064604F012F90028EED18C
:1004C000012F0AD02E2E08D12046E16888477F1CD4
:1004D0000646022F45F02005C4DBA069002803DA98
:1004E000404245F00105A061E80701D025F0100564
:1004F000B6B1A6F14100192802D8203645F40065AE
:100500004A463146204625604D46FFF789FE58B1E0
:10051000012806D0ED1D25F0070000F1080989E744
:1005200004E005F1040985E730468AE7206ABDE862
:10053000F08701B500F0ACF801BD01F0FF031146F2
:1005400001B543EA032242EA024200F0E8F801BDA5
:100550004FF0000200B5134694469646203922BF5C
:10056000A0E80C50A0E80C50B1F12001BFF4F7AFA7
:10057000090728BFA0E80C5048BF0CC05DF804EB89
:10058000890028BF40F8042B08BF704748BF20F8F7
:10059000022B11F0804F18BF00F8012B70477047F5
:1005A0007047704710B500F0DBF8006810BD10B55B
:1005B000044600F0D5F8046010BD2DE9F0470D4663
:1005C00099469246044600F124080168880604D53D
:1005D000E06921F01001216000E00120A84201DD66
:1005E000471B00E00027A1697A1902EB0900081AED
:1005F000A0612078C00602D42046AFF30080002618
:1006000008E0D4E901211AF806009047206A401C4E
:10061000761C20624E45F4DB2078C0060AD52046C1
:10062000AFF3008006E0D4E9012130209047206A32
:10063000401C2062381EA7F10107F4DC07E0D4E972
:10064000012118F805009047206A401C2062281EEE
:10065000A5F10105F3DC2046AFF300802078000609
:1006600002D50220BDE8F0870120FBE7074B70B5FB
:100670000D467B4400F095F80446284600F0A4F8A7
:1006800010B14FF0FF3070BD204670BD0341000037
:10069000032A40F2308010F0030C00F0158011F8AE
:1006A000013BBCF1020F624498BF11F801CB00F886
:1006B000013B38BF11F8013BA2F1040298BF00F8DA
:1006C00001CB38BF00F8013B11F0030300F01C819F
:1006D000083AC0F0088051F8043B083A51F804CBBE
:1006E000A0E80810F5E7121D5CBF51F8043B40F884
:1006F000043BAFF30080D20724BF11F8013B11F88F
:1007000001CB48BF11F8012B24BF00F8013B00F8D2
:1007100001CB48BF00F8012B70474FF000020429BD
:10072000C0F0128010F0030C3FF414AFCCF1040CB5
:10073000BCF1020F18BF00F8012BA8BF20F8022B54
:10074000A1EB0C01FFF706BF5FEAC17C24BF00F8F4
:10075000012B00F8012B48BF00F8012B7047000067
:1007600000487047081C00201FB584B000200A9C78
:1007700006AB04AA02A90094AFF3008018B1DDE92A
:10078000020108B010BD0348204000F026FB002005
:100790000146F6E70000207C01694A1C02610878E6
:1007A000704700B58FB0CDE90131002105910549B1
:1007B0007944CDE9031011466846FFF733FE0FB0C8
:1007C00000BD0000E5FFFFFF007B00F080007047E8
:1007D00010B542485421FFF7BBFE41485421FFF7B2
:1007E000B7FE40485421FFF7B3FE3F493B483C4A1F
:1007F0003F4B08603D490A603A491960531C036544
:10080000481C1065012008653B48344A39A17844EA
:1008100000F03EFA20B9384878440A3800F0E4FA8B
:1008200037482F4A35A1784400F032FA20B93448CD
:1008300078440A3800F0D8FA32482A4A2FA178447E
:1008400000F026FA20B92F4878440A3800F0CCFA94
:1008500040232248DC000021224600F0F6F920B1B6
:1008600025487844543800F0BFFA1D4822464023FA
:10087000002100F0EAF920B121487844543800F012
:10088000B3FA184822461023002100F0DEF90028B0
:1008900006D01C487844BDE81040563800F0A4BA91
:1008A00010BD104870B5006D20F001040B4800F039
:1008B00065FA0B4800F062FA0A4800F05FFA09E0B6
:1008C000206D20F00105204600F058FA204600F087
:1008D000AAF82C46002CF3D170BD00000C1B0020A0
:1008E000601B0020B41B0020180000201C0000200A
:1008F00020000020720000006E5C00007700000005
:100900005A5C0000465C000010B5203AC0F00B8035
:10091000B1E81850203AA0E81850B1E81850A0E803
:100920001850BFF4F5AF5FEA027C24BFB1E818505D
:10093000A0E8185044BF18C918C0BDE810405FEACD
:10094000827C24BF51F8043B40F8043B08BF704749
:10095000D20728BF31F8023B48BF11F8012B28BF4E
:1009600020F8023B48BF00F8012B70470EB5CDE9D7
:10097000000100F025FC029069460120ABBE0EBDCF
:1009800008B5694600900220ABBE08BD1FB58DE8D2
:10099000070069460520ABBE04B010BD1FB58DE849
:1009A0000F0069460620ABBEF6E708B56946009021
:1009B0000920ABBE08BD1CB5CDE9000169460A207F
:1009C000ABBE1CBD704708B5694600900C20ABBE9D
:1009D00008BD000000487047081C00207546FFF75E
:1009E000F9FFAE4605006946534620F007008546EC
:1009F00018B020B5FFF744FCBDE820404FF00006DA
:100A00004FF000074FF000084FF0000B21F00701F6
:100A1000AC46ACE8C009ACE8C009ACE8C009ACE839
:100A2000C0098D46704770B50446051F00F0E4F913
:100A30000068002C14BF446870BD002C18BFAC4285
:100A40003CBF20466468F8D301680A18AA4218BF60
:100A5000456003D12A6805461144016028684119A0
:100A6000A1421CBF6C6070BD616869602168084468
:100A7000286070BD2DE9F04705460C46C86820F493
:100A8000201040F48000C860800602D5084600F0BF
:100A900000FBE06841F282014FF0FF39014002297A
:100AA00003D0204600F09EFAB5E000F42041B1F5F5
:100AB000004F0FD1C00306D56168E06A884200D8B4
:100AC0000846606006E02069E06260606069FFF7E8
:100AD0007AFFA061A0680022EEB200280DDAE1687A
:100AE0008B050AD4C043A06041F490302260E060DE
:100AF0006068411C61600670A5E0E0689046226075
:100B000040F40050E060206968BB6069FFF74DFF6A
:100B1000012704F12405A0B1A08910F4407F08D07A
:100B2000E06900F0B4F9206118B1E06840F40060B9
:100B300016E0E7612561E06820F4407040F48060D1
:100B40000EE0E06900F0A3F900282061F1D0E06830
:100B500040F4006010F4407FE06002D140F4807007
:100B6000E06020696060E06825696FF0010AC105F6
:100B70001FD56168E06A884200D80846411B04D04E
:100B80002246284600F038FAF0BBE068010203D59F
:100B9000E562C4E9015854E0691CE1626160E16901
:100BA00040F48030491EC4E9021030462E70BDE882
:100BB000F087010202D500F480320AE06068411C2F
:100BC00061600670E0680A2E40F48030E06006D074
:100BD0000022E16A6068814203D90B4602E00122EB
:100BE000F7E70346A7895B1B7F0503D4E7699F42AC
:100BF00000DDE2B1814200D80146E5620F1AC4E986
:100C00000158002B09DD00E005E022461946284680
:100C100000F0F2F908B14846C9E747B1A069E562BA
:100C20006560C01BA061E06840F01000E060E06813
:100C3000000208D56168A069E562491B0844656047
:100C4000A0615046B3E73046B1E770B5C468A50768
:100C500013D0650211D4B2F5807F09D0B2F5007FC0
:100C600006D0B2F5806F08D1012300F1240106E01F
:100C70005D1E6FF07F46B54201D3012070BD01615A
:100C8000C361416024F470611143C160002070BDF4
:100C90002DE9F0410C4607461646104600F06EF866
:100CA0002078611C61280AD0722802D077283CD1B4
:100CB00002E00125002405E00225042402E00824C6
:100CC00048F2020511F8010B2B2806D0622809D042
:100CD00011F8010C74280AD00BE045F0030544F02C
:100CE0000204EFE745F0040544F00104EAE744F0AC
:100CF000100438462146FFF739FE411C15D000216B
:100D0000316171604FF40071F560F161706120072D
:100D100004D530460222002100F0E8F8306D40F0A2
:100D2000010030653046BDE8F0810020FBE72DE989
:100D3000F0410D460646104C206DC10704D0410815
:100D400004D020F00104F7E722460EE0542000F022
:100D50009EF807000ED0206D47F001010843542192
:100D600020653846FFF7F4FB3A4629463046BDE891
:100D7000F0418DE70020D6E70C1B00202DE9F0475D
:100D800004464FF000094FF0FF37C568D4E90486E8
:100D9000A80707D0204600F059F93046FFF7F0FDCC
:100DA000002802DA3846BDE8F087280502D540461B
:100DB000FFF739FE4C212046FFF7CAFB206D20F0DB
:100DC000010020654846EEE710B50446AFF3008009
:100DD0002046BDE81040FFF73FBA10B500F080F99B
:100DE000BDE8104000F076B910B500F0CFF9BDE8CD
:100DF000104000F06FB9704700487047101C002089
:100E0000704770477047704738B504460A4600205F
:100E10006946AFF30080002808BF38BD024600993C
:100E2000204600F0FAF9012038BD012000F049BA4F
:100E3000F8B5AFF30080054600200C46102000BF37
:100E40000646A819A0420DD9324669460020AFF3E4
:100E50000080070008BF00F034FA0098A04218BFD5
:100E60000546C419FFF7C8FF05600746F01D20F0CE
:100E700007004619284600F0C9F9B44208BFF8BD7A
:100E8000A21B31463868BDE8F84000F0C6B970B51D
:100E90000646FFF7B1FF056806F10B0020F00704D6
:100EA000B4429CBF002070BD2B466A68BAB110687E
:100EB000A04210D304F1080188423CBF506858603A
:100EC00007D35168101941601168091B016058600F
:100ED0001460101D70BD13465268002AE7D12146E8
:100EE0002846FFF791FF0028DED170BD2DE9F041C3
:100EF000044616460D464769007B80072ED03846CB
:100F0000FFF753FD50BB3EB3012E02D0022E25D178
:100F100004E0204600F09BF905441DE03846FFF749
:100F200052FDE168002841F01001E16005DA204639
:100F300000F058F80120BDE8F081C9030BD56268C4
:100F4000E16A914200D81146A26911442269891AC6
:100F5000814200DD08460544002D01DA0220EAE75F
:100F6000E16A6068E268814206D29103E06203D5DB
:100F700022F4003141F01002A6690027AE4213DCD2
:100F8000E16A814201D90B4600E0034603EB060CFF
:100F90002369ACEB030CAC4506DD814201D98C46DC
:100FA00000E084469C4505D1A760276042F0200000
:100FB000A5620DE0AD1BE669AE1B8142A66000D9BB
:100FC0000846C01A281A20605819606022F02000D4
:100FD00003490840E060002084F84870ABE7000057
:100FE000BFCFD7FFC16821F4001141F08001C1607B
:100FF00000218160016070472DE9F0478146144669
:101000000E464FF0FF383248D5685769054209D07F
:101010003846A169FFF7CFFC002811DB2C48C043FC
:101020000540E5602B46324649463846FFF7AEFCA0
:10103000A16920F00042B21A11440028A16103D036
:101040002046FFF7CFFF4046BDE8F08770B5044665
:101050000569C06A6168884200D80846E16821F4E1
:101060002011E160C90312D5A84208D02246411BD5
:101070002846FFF7C1FF10B14FF0FF3070BD0020D0
:10108000E562C4E90150E06820F48030E0600020AF
:1010900070BD10B50446C06820F02000E060A16A71
:1010A000A06988420DD02046FFF7D0FFE06820F409
:1010B000405040F01000E060A06AA0612069E0624A
:1010C000606044F24001E0688843E06010BD0000C9
:1010D00010000200002801D000F092B87047000014
:1010E00010B5022803D0410103D50DA112E0002064
:1010F00010BD010101D50FA10CE0C10001D511A166
:1011000008E0810001D512A104E0400001D513A13F
:1011100000E0002115A000F0BBF8012010BD000088
:10112000496E76616C6964204F7065726174696F95
:101130006E000000446976696465204279205A6532
:10114000726F00004F766572666C6F77000000006A
:10115000556E646572666C6F77000000496E657845
:1011600061637420526573756C740000534947467F
:1011700050453A2041726974686D657469632065F1
:101180007863657074696F6E3A20000010B501468F
:1011900002A000F07DF8012010BD00005349475225
:1011A000545245443A2052656469726563743A202A
:1011B00063616E2774206F70656E3A200000000036
:1011C00010B5431C02E010F8011B71B18107FAD180
:1011D0004FF0013202C88C1A8C4314EAC211F9D0C4
:1011E000C01A0A0603D0C01E10BDC01A10BD0A04E2
:1011F00001D0801E10BD0902FCD0401E10BD0000B1
:1012000001491820ABBEFEE7260002000021016064
:10121000C0E90110704710207047034640688C46B3
:10122000002818BF88423CBF03464068F8D31868BE
:101230001844884207D00CF1030020F00700001D7D
:10124000411A521A0146081D0A60FFF7ECBB10B59F
:101250000146C268900703D0900607D5886A0AE065
:10126000FFF77EFA01210160881E10BD8B69486876
:1012700018440B69C01A91F848301BB191F8491015
:10128000401A10BD1103FCD50028FADD401E10BD28
:1012900070B505460C460A2000E06D1C00F018F8F9
:1012A00035B128780028F8D102E0641C00F010F86D
:1012B00014B120780028F8D1BDE870400A2000F071
:1012C00007B810B500F00CF8BDE81040FFF702BFFA
:1012D00008B569468DF800000320ABBE08BD0000CC
:1012E00010B5012805D0002103A0FFF7D1FF012090
:1012F00010BD09A1F8E7000053494752544D454D30
:101300003A204F7574206F662068656170206D65A6
:101310006D6F7279000000003A2048656170206DA1
:10132000656D6F727920636F727275707465640099
:101330002DE9F04FDFF83081484A89B0002302934D
:101340000790059208F2FC7A0693DDE90612444BF9
:1013500002EB81021C1D52F80C1B43F8041F53457D
:10136000F9D1D8F8003004939B4654F8045F5946ED
:10137000284604F0BCFD00B1AB465445F5D14FF012
:101380007E51584604F0DEFE059B00930123039036
:1013900000241F46CDF804B0009B039D43F8045B76
:1013A0003846009304F0FCFD2E4904F03FFE4FF058
:1013B0007C5104F0C7FE0646204604F0F8FD0146C5
:1013C000304604F086FD30B34FF000091FFA89FB68
:1013D000584604F0E5FD294604F028FE58F824108C
:1013E00004F059FD05460BF1010004F0D9FD01465A
:1013F000284604F08FFD0134A4B20546204604F0CF
:10140000D6FD314604F06CFD09F101090028DDD15B
:10141000009B43F8045C114E029B019956F823008F
:1014200004F065FD30B1029A049946F82210009B41
:1014300053F8045C0199284604F059FD50B1BBB241
:10144000012B09D0054B009A03EB870353F8083CA6
:1014500042F8043C0A2F09D001379DE7681C0020A0
:10146000DC1C0020CDCC4C42E01C0020059A069BE1
:1014700028320592029A01330A32032B0693029214
:101480007FF463AFA24C226802921046002104F060
:1014900002FD636801930146184604F0FCFCA36852
:1014A00000930146184604F0F6FCD4F80CA001465F
:1014B000504604F0F0FCD4F810900146484604F081
:1014C000EAFCD4F814800146404604F0E4FCA76925
:1014D0000146384604F0DFFCE6690146304604F078
:1014E000DAFC256A0146284604F0D5FCD4F824B07D
:1014F0000146584604F0CFFC864904F00BFD029AE1
:1015000004462146104604F01DFE814B1860019BE5
:101510002146184604F016FE7D4A034621460098EF
:10152000536004F00FFE7A4A03462146936050460A
:1015300004F008FE764A03462146D360484604F08C
:1015400001FE734A034613612146404604F0FAFD4A
:10155000034638466E4F21467B6104F0F3FD034697
:101560002146BB61304604F0EDFD03462146FB6198
:10157000284604F0E7FD03463B622146584604F046
:10158000E1FDBA6A786200211046029204F083FC01
:10159000FB6A01930146184604F07DFC3B6B009307
:1015A0000146184604F077FCD7F834A001465046AF
:1015B00004F071FCD7F838900146484604F06BFC03
:1015C000D7F83C800146404604F065FC3C463E4668
:1015D0003D463F6C0146384604F05DFC766C0146A2
:1015E000304604F058FCAD6C0146284604F053FC2C
:1015F000D4F84CB00146584604F04DFC454904F07F
:1016000089FC029A04462146104604F09BFD019B8A
:10161000024618463E4B21469A6204F093FD3C4A2E
:10162000034621460098D36204F08CFD384A0346F5
:1016300021461363504604F085FD354A0346214692
:101640005363484604F07EFD314A034693632146C6
:10165000404604F077FD034638462D4F2146FB6394
:1016600004F070FD034621463B64304604F06AFDF9
:10167000034621467B64284604F064FD0346BB64B0
:101680002146584604F05EFD3A6DF864002110468C
:10169000029204F000FC7B6D01930146184604F0B1
:1016A000FAFBBB6D00930146184604F0F4FBD7F833
:1016B0005CA00146504604F0EEFBD7F86090494626
:1016C00004F0E9FBD7F864800146404604F0E3FBF0
:1016D0003C463E463D46BF6E394604F0DCFBF66EA6
:1016E000314604F0D8FB2D6F294604F0D4FBD4F822
:1016F00074B0594604F0CFFB064904F00BFC029A83
:1017000004462146104604F01DFD019B04E000BF85
:10171000681C00200000204102461846354B214637
:101720001A6504F00FFD334A0346214600985365BD
:1017300004F008FD2F4A034621469365504604F005
:1017400001FD2C4A03462146D365484604F0FAFCC5
:10175000284A034613662146404604F0F3FC03463C
:101760003846244F21467B6604F0ECFC03462146B4
:10177000BB66304604F0E6FC03462146FB6628467D
:1017800004F0E0FC03463B672146584604F0DAFCCF
:101790003B4678673ABA0020591E0B4000F1010021
:1017A000FAD122B1511E0A4003F10103FAD1C31A42
:1017B000B3FA83F35B094FEA8302A2EB03024FEA19
:1017C0008202A2EB03024FEA8202A2EB03024FEA7B
:1017D00002121A444FEAC2221A444FEAC202A2EB92
:1017E00003024FEA42126FEA020212BA09B000F095
:1017F00003B800BF681C002030BCBDE8C08F0000EB
:101800002DE9F04FDFF8148398F86C3187B00C465F
:10181000A3F17C020091022A4FF0FF0121704ED902
:10182000802B4CD0B8F86E31092B4CD9FFF780FDD6
:10183000B94A98F86A3112680592012B00F0DB80F2
:10184000B64FDFF800930026B54DA7F1040BAA466A
:1018500000245BF8041F5AF8040F04F0E7FB01466C
:10186000204604F018FBD1450446F2D1014604F0AD
:10187000DDFB0146304604F00EFBAA4B7837BB4235
:101880000646E1D1002455F8041F084604F0CEFBBB
:101890000146204604F0FFFAA9450446F3D1A249C7
:1018A00004F025FB00284AD0D8F870019E4904F0C6
:1018B0001EFB002841D06423009A137000231846B1
:1018C00007B000F07FB97E23184688F86C3107B066
:1018D00000F078B9204604F035FC944904F0DBFAB6
:1018E000934904F0A3FB044602F001FF4FF07E5140
:1018F00004F0D1FA01468F4804F00CFB4FF07E5102
:1019000004F020FC8C4904F0F2FA002800F0E28098
:10191000204602F0ECFE4FF07E5104F0BCFA014686
:10192000844804F0F7FA4FF07E5104F00BFC0021DC
:1019300004F0DDFA002800F0CD800023BCE7059814
:1019400004F06CFA6EA3D3E9002303F09DFD03F0CD
:10195000EBF804F063FA02F0E7FF6BA3D3E900238E
:1019600003F092FD6AA3D3E9002303F03FFA03F0EA
:10197000DBF821460546304604F0CCFA0146044621
:10198000284604F0B4FA29460028A3D0204604F0E3
:10199000D9FB664904F07FFA654904F047FB044629
:1019A00002F0A5FE4FF07E5104F075FA0146614841
:1019B00004F0B0FA4FF07E5104F06DFA5F4904F084
:1019C00081FA002840F0C080204602F090FE4FF0DF
:1019D0007E5104F060FA0146564804F09BFA4FF03D
:1019E0007E5104F058FA554904F06CFA002840F092
:1019F000D4805B2360E70223002288F86A3108F56F
:101A0000B87303920192A8F1040702933D460024A3
:101A100007F1780A55F8041F084604F007FB014651
:101A2000204604F038FAAA450446F3D103F050F8F2
:101A3000029B434943F8040B0546029304F042FA23
:101A4000014600283CD17822381DFEF776FD019B27
:101A50000133032B01933FF4F3AE039BCDF810A0A9
:101A60001E330393994607F1F006A6F17805AB46BD
:101A7000BA4600245AF8041F5BF8040F04F0D6FAA3
:101A80000146204604F007FA5E450446F2D1BB4603
:101A90005BF8041F204604F0C9FA014655F8040F0C
:101AA00004F050FBAE422860F2D109F11E09B9F1F1
:101AB0005A0F06F17806D8D1DDF810A05746A5E7F1
:101AC0003C4654F8040F294604F024FAA24520604D
:101AD000F7D1BCE7204602F00AFE4FF07E5104F039
:101AE000DAF90146134804F015FA4FF07E5104F07C
:101AF00029FB114904F0FBF900283BD15923DBE60F
:101B0000EC51B81E85EB0340000000A09999B93F45
:101B1000D7A3703D0AD7E33F24000020280000200F
:101B2000641C0020900100205F70893054FF603DEC
:101B3000000020C20000C8420000B2420000B642CD
:101B400077CC2B32DC1C0020204602F0D0FD4FF079
:101B50007E5104F0A0F90146194804F0DBF94FF07A
:101B60007E5104F098F9164904F0ACF900287FF48E
:101B7000A2AE29E7204602F0BAFD4FF07E5104F0F4
:101B80008AF901460E4804F0C5F94FF07E5104F081
:101B9000D9FA04F0E3F9C3B28EE6204602F0A7FDBD
:101BA0004FF07E5104F077F90146054804F0B2F990
:101BB0004FF07E5104F06FF904F0D0F9C3B27BE628
:101BC0000000C84230BCBDE8C08F000008B50F4B14
:101BD0004FF4B47218460021FEF7AFFC0C4A11888E
:101BE0000346A5294FF000004FF00102A3F8680159
:101BF00018BF7C2083F86A2183F86B210ABF83F821
:101C00006C0183F86C01A3F86E0108BD2800002068
:101C1000F077FF1F2DE9F04F7A4B93F86B41012CC1
:101C20008BB040F0A581774D95F86C317C2B00F09E
:101C3000E480FFF77DFBB5F86E3195F86A2101333A
:101C40009BB2012A0393A5F86E3114D985F86A4135
:101C500005F5B8762C1F002556F8047B04F17808AA
:101C600054F8040F394604F0E1F944452060F7D1F7
:101C70001E355A2DF0D164496448654C7822FEF730
:101C800058FC604BB3F868310493022B00F2C48017
:101C900004F5B872029204F5F672CDE9052300232B
:101CA0000193039B043B04F5F47B0993049B019A85
:101CB000934200F06581574D029EA1462F1D4FF0C3
:101CC000000859F8041F56F8040F04F0AFF9014654
:101CD000404604F0E0F8B3458046F2D1A2464FF00A
:101CE000000904F178065AF8041F084604F09EF92A
:101CF0000146484604F0CFF856458146F3D102F03C
:101D0000E7FE0146404604F005F98246039804F0D8
:101D10004EF98046099804F043F9414604F0FAF878
:101D2000414681464FF0814004F0F4F82246CDE967
:101D30000754B8464C461546814655F8041F58F8D6
:101D4000047B204604F072F93946844648466746CB
:101D500004F06CF9514604F069F90146384604F084
:101D60009AF8059B28604345E7D1DDE90754002731
:101D7000A04658F8041F084604F058F901463846B2
:101D800004F089F846450746F3D102F0A1FEDDF8DC
:101D900008908046A24600275AF8041F59F8040FFD
:101DA00004F044F90146384604F075F8CB4507467F
:101DB000F2D1414604F0AEF80746414654F8040F0C
:101DC00004F0A8F8394604F031F9014655F8040F3B
:101DD00004F0B8F95D452860EFD1019B069A013304
:101DE0009A4201933446BFF661AF039B054A0A2B22
:101DF00034BF7E237F2382F86C3118460BB000F08D
:101E0000EFB800BF28000020681C002098010020C7
:101E1000240000209401002004F5B873029304F517
:101E2000F6730793039B043B04F5F47B08930023AC
:101E300000270493CDF804B0664DDDF80890A24663
:101E40002E1DB8465AF8041F59F8040F04F0EEF896
:101E50000146404604F01FF8019B4B458046F1D1F6
:101E6000A246B94604F1780B5AF8041F084604F05C
:101E7000DDF80146484604F00EF8D3458146F3D11B
:101E800002F026FE0146404604F044F882460398DC
:101E900004F08DF88046089804F082F8414604F07A
:101EA00039F8414681464FF0814004F033F822462C
:101EB000059406954C46B0468146154655F8041FD4
:101EC00058F8046B204604F0B1F831468446484681
:101ED000664604F0ABF8514604F0A8F801463046D7
:101EE00003F0D9FF079B28604345E7D1DDE90545AD
:101EF0003E46A04658F8041F084604F097F80146ED
:101F0000304603F0C8FFC3450646F3D102F0E0FDBA
:101F1000DDF808908046A2463E465AF8041F59F85C
:101F2000040F04F083F80146304603F0B4FF019B30
:101F30004B450646F1D1414603F0ECFF06464146CB
:101F400054F8040F03F0E6FF314604F06FF8014641
:101F500055F8040F04F0F6F8019B2860AB42EED16F
:101F6000049B1E335A2B04933FF43FAF5C4663E758
:101F70007B23194A184682F86C310BB000F030B858
:101F8000144E002556F8041F084604F04FF8014689
:101F9000284603F080FFB3450546F3D102F098FDD3
:101FA0000E4903F08FFF10B904F1780615E7049D80
:101FB000094FC5EB051007EBC000782207F5B87193
:101FC000FEF7B7FA6B1C9BB2049304F17806A7F8EE
:101FD000683102E794010020280000205F708930FA
:101FE00030BCBDE8C08FFEE7704772B6FEE7000068
:101FF0002DE9F04FDFF8E091002301270326A9F136
:10200000040B85B00F2509F1040AABF1040EDBE0E7
:1020100007FA03FC12EA0C027ED00C7904F00304E8
:10202000012C01D0022C20D1846800945C0006FAB7
:1020300004F80494009C24EA08040094D1F80C806D
:10204000049C08FA04F8009C48EA0408C0F80880D8
:10205000446824EA0C0491F804C0CCF3001C0CFA88
:1020600003FC4CEA040CC0F804C00C79E443A40758
:102070000DD0D0F80CC04FEA430806FA08F42CEA59
:10208000040C8C6804FA08F444EA0C04C4600C796B
:1020900004F00304022C19D1DC0800EB8404029440
:1020A000246A4FEA437C4FEADC6CCDF810C005FA95
:1020B0000CFC24EA0C04D1F81080DDF810C008FAFA
:1020C0000CF848EA0408029CC4F8208004684FEA2F
:1020D000430806FA08FC24EA0C0491F804C00CF04A
:1020E000030C0CFA08FC4CEA040CC0F800C04C6865
:1020F00014F4403F67D0394CD4F860C04CF0010C68
:10210000C4F860C0246E23F0030C04F001040094B2
:10211000334C6444029400E055E0A4684FEA837CA9
:102120004FEA1C7805FA08FC24EA0C04B0F1904F41
:1021300006D0DFF8B0C0604505D14FF0010C0BE0D0
:102140004FF0000C08E0DFF8A0C0604502D14FF06E
:10215000020C01E04FF0070C0CFA08FC4CEA040CEE
:10216000029CC4F808C0D9F80040CC46D1F80480DD
:1021700094435FEAC82800D51443CCF80040DAF84D
:102180000040D446D1F8048094435FEA882800D503
:102190001443CCF80040DBF80040DC46D1F8048062
:1021A00094435FEA883800D51443CCF80040DEF849
:1021B0000040F446D1F8048094435FEAC83800D563
:1021C0001443CCF800405B1C0C682246DC407FF4D2
:1021D0001FAF05B000F00AB808040140001002402B
:1021E00000000140000400480008004830BCBDE881
:1021F000C08F0AB181617047816270470148806871
:1022000070470000080000200248816802781144ED
:10221000816070470800002010B50024032000F002
:1022200063F80F2000F008F808B1012401E000F085
:1022300025F8204610BD000070B50E4E054600245E
:10224000307898B14FF47A71B1FBF0F00A4909681F
:10225000B1FBF0F001F00DF940B9102D06D20022CB
:102260002946501E00F020F8756000E00124204649
:1022700070BD00000800002014000020094808B5C7
:10228000016E41F001010166016E01F00101009152
:10229000816D41F080518165806D00F0805000902B
:1022A00008BD000000100240F0B40E4B1B680C4645
:1022B000C3F30223C3F10705042D00D90425191D1A
:1022C000072901D2002300E0DB1E012606FA05F1F2
:1022D000491E214099409E40761E16403143F0BC75
:1022E00001F042BE0CED00E0064900F0070208686C
:1022F0004FF6FF03184040EA0220034A10430860EB
:10230000704700000CED00E00000FA051649B0F53A
:10231000007F0868C0F3412009D0022805D0086872
:1023200020F4C06040F480600860002070470128FD
:10233000FBD0086820F4C06040F4007008600B48CF
:102340003222006850430A4AB0FBF2F0401C00E021
:10235000401E4A69520501D50028F9D14869400557
:10236000E3D50320704700000070004014000020F7
:1023700040420F000248006800F4C060704700004F
:10238000007000402DE9F84F0446002700889C4D5E
:102390003E46000515D5E06B60B1B0F5000F04D0E6
:1023A000B0F5400F2BD001270AE0E86840F48030F8
:1023B000E86024E00021201D01F068F907001ED02C
:1023C0003E462068800338D5A86D4FF00008C00055
:1023D00009D4A86D40F08050A865A86D4FF00108A1
:1023E00000F080500090DFF81CA2DAF8001041F4F1
:1023F0008071CAF80010FFF701FF814610E0D5F8A0
:102400008800E16B20F440000843C5F88800D8E755
:10241000FFF7F4FEA0EB0900022801D9032704E02E
:10242000DAF80000C005F3D5EFB33E46B8F1000F6F
:1024300003D0A86D20F08050A8652078C00707D091
:10244000D5F88800216A20F003000843C5F8880009
:102450002078800707D5D5F88800616A20F00C0045
:102460000843C5F888002078800607D5D5F888008D
:10247000A16A20F440600843C5F8880020888005E0
:1024800007D5D5F88800616B20F440200843C5F8D3
:1024900088002088400509D5D5F88800A16B20F474
:1024A0004010084300E02EE0C5F888002078400680
:1024B00007D5D5F88800E16A20F440500843C5F8F4
:1024C00088002088C00507D5D5F88800216B20F446
:1024D00040300843C5F8880020884FF0006780042A
:1024E0004FF080684ED5D5F88800216C20F0406010
:1024F0000843C5F88800206CB8423BD1E86840F436
:102500008010E8603EE0D5F8900010F4407014D0E0
:10251000216D814211D0D5F89000D5F8901020F4AB
:10252000407041F48031C5F89010D5F8901021F436
:102530008031C5F89010C5F89000C00711D0FFF7A2
:102540005DFE074641F2883907E000BFFFF756FEFF
:10255000C11B494501D9032668E7D5F890008007DB
:10256000F4D5D5F89000216D20F440700843C5F8EB
:1025700090005BE7404505D10121201D01F086F860
:1025800000B106462068400317D5D5F88800616C75
:1025900020F040600843C5F88800606CB84204D160
:1025A000E86840F48010E86007E0404505D101216B
:1025B000201D01F06BF800B106462088400411D5BB
:1025C000D5F88800A16C20F040500843C5F8880079
:1025D000A06CB0F1805F05D10221201D01F056F8FA
:1025E00000B106462088000406D555F8880FE16C36
:1025F00020F0804008432860304600F005B8000015
:10260000001002400070004018BCBDE8E08F0000E0
:102610002DE9F0470F4605006BD0494E306800F0B9
:102620000700B84209D2306820F007003843306014
:10263000306800F00700B8425BD12878414C800731
:102640000AD5A868A16801F0F001884204D9A16800
:1026500021F0F0010143A1602878C0072CD0686800
:10266000032811D0022812D0216898B14905002909
:102670003FDAA16821F003010143A160FFF7BEFD2D
:10268000804641F2883910E021688901EFE721682E
:102690008903ECE78907EAE7FFF7B0FDA0EB080143
:1026A000494502D90320BDE8F087A068696800F0B9
:1026B0000C00B0EB810FEFD1287880070AD5A8680D
:1026C000A16801F0F001884204D2A16821F0F00174
:1026D0000143A160306800F00700B8420BD93068B0
:1026E00020F0070038433060306800F00700B8423F
:1026F00001D00120D7E72878400705D5A068E96810
:1027000020F4E0600843A0602878000706D5A068A0
:10271000296920F4605040EAC100A06000F03EF852
:10272000A168094AC1F30311515C01F01F01C840BF
:102730000649086006480068BDE8F047FFF77CBD21
:102740000020024000100240C46300081400002072
:102750000C0000200548064900688968054AC1F355
:102760000221515C01F01F01C84070471400002095
:1027700000100240046400080548064900688968A2
:10278000054AC1F3C221515C01F01F01C8407047E6
:1027900014000020001002400464000870B52549B0
:1027A000002318468A68CC6812F00C0204F0030675
:1027B000214C4FEA640509D00C2A05D0042A32D0F6
:1027C000082A00D1284670BD012E10D10B681B07C6
:1027D00004D4D1F89430C3F3032302E00B68C3F3AD
:1027E0000313164E56F82330DAB10C2AEBD1C86821
:1027F00000F00300022818D0032818D01846CA6831
:10280000CB68C2F30212C3F306234343521CB3FB4B
:10281000F2F2C868C0F34160401C4000B2FBF0F027
:1028200070BD184670BD204670BD2046E7E72846BB
:10283000E5E70000001002400024F400D463000823
:102840002DE9F84304006FD0FA4DA86800F00C069B
:10285000E86800F003072078C00664D576B10C2E36
:1028600001D1012F0AD0A069002828687AD040F051
:1028700001002860FFF7C2FC80465DE02868800701
:1028800002D5A0690028DED0216A2868000703D598
:10289000286800F0F00004E0D5F89400F02202EA85
:1028A0001010814216D9084600F086FF00283BD15F
:1028B000286840F0080028602868216A20F0F000AD
:1028C000084328606868E16920F47F4040EA0120FD
:1028D000686016E0286840F0080028602868216ACF
:1028E00020F0F000084328606868E16920F47F4028
:1028F00040EA0120686026B9206A00F05DFF0028E8
:10290000D5D1FFF74BFFA968CB4AC1F30311515C46
:1029100001F01F01C840C9490860C9480068FFF7B5
:102920008BFC00287ED12EE0CAE000BFFFF766FCDA
:10293000A0EB0800022876D828688007F6D528681A
:1029400040F0080028602868216A20F0F000084361
:1029500028606868E16920F47F4040EA01206860EF
:1029600011E0FFE720F001002860FFF747FC8046F8
:1029700006E000BFFFF742FCA0EB08000228DAD80F
:1029800028688007F6D42078C00740D0082E18D0D9
:102990000C2E01D1032F14D06068B0F5803F17D002
:1029A000B0F5A02F286817D020F480302860286860
:1029B00020F4802028606068E0B1FFF71FFC8046AB
:1029C00014E02868800322D56068002878D01EE0D3
:1029D000286840F48030EDE740F480202860F7E775
:1029E000FFF70CFCA0EB08006428A4D8286880033B
:1029F000F6D50CE0FFF702FC804605E0FFF7FEFB92
:102A0000A0EB0800642896D828688003F6D42078C4
:102A100080073BD5042E11D00C2E01D1022F0DD0F2
:102A2000E06801E0AAE1FFE0002828681ED040F439
:102A300080702860FFF7E2FB07460CE0286840053D
:102A40000CD5E0680028C1D008E000BFFFF7D6FB36
:102A5000C01B022893D828684005F7D56868217CF8
:102A600020F0F85040EA016068600FE020F48070C8
:102A70002860FFF7C3FB074605E000BFFFF7BEFB7A
:102A8000C01B0228B1D828684005F7D42078000779
:102A900029D560690028D5F8940012D040F00100D3
:102AA000C5F89400FFF7AAFB074604E0FFF7A6FB72
:102AB000C01B022899D8D5F894008007F6D512E0FB
:102AC0002BE120F00100C5F89400FFF797FB0746C3
:102AD00005E000BFFFF792FBC01B022885D8D5F8A0
:102AE00094008007F6D42078400766D5A86D0027AB
:102AF000C00008D4A86D40F08050A865A86D0127DB
:102B000000F0805000904F480168C90512D4016858
:102B1000814641F480710160FFF770FB804605E05B
:102B2000FFF76CFBA0EB080002287DD8D9F8000065
:102B3000C005F5D5A068012816D00528D5F8900065
:102B400017D020F00100C5F89000D5F8900020F0D3
:102B5000040000BFC5F89000A06841F28839C0B1F8
:102B6000FFF74CFB80460FE0D5F8900040F00100E5
:102B7000F0E740F00400C5F89000F5E7FFF73EFBF2
:102B8000A0EB080149454FD8D5F890008007F5D54E
:102B90000EE0FFF733FB804606E000BFFFF72EFB99
:102BA000A0EB080149453FD8D5F890008007F5D43F
:102BB0001FB1A86D20F08050A8652078800628D528
:102BC000606A0028D5F8980012D040F00100C5F8DE
:102BD0009800FFF713FB074605E000BFFFF70EFB69
:102BE000C01B022820D8D5F898008007F6D510E041
:102BF00020F00100C5F89800FFF700FB074604E04D
:102C0000FFF7FCFAC01B02280ED8D5F89800800701
:102C1000F6D4A06AF0B3022816D00C2E7DD0286816
:102C200020F08070286000E0A7E0FFF7E7FA044694
:102C3000A6E0000000100240C46300081400002059
:102C40000C00002000700040E868E26A00F0030118
:102C5000914228D1216B00F0700209011039914294
:102C600021D1626B00F4FE41B1EB022F1BD194F82D
:102C7000382000F07841B1EBC26F14D1A18F00F47D
:102C8000C00249084905A1F5001191420BD194F801
:102C9000401000E06AE04908490600F0C060A1F178
:102CA000007181424BD00C2E73D02868400170D443
:102CB000286820F080702860FFF7A0FA064604E03C
:102CC000FFF79CFA801B022857D828688001F7D4A8
:102CD000F4E90B016FF00F0202EB01110843218AA6
:102CE0005204490802EB4151A26841EA022108431B
:102CF000217D4FF07E42490802EB41610843217B70
:102D000040EAC160E968244A11400843E860286845
:102D100040F080702860E86800E03AE040F08070A1
:102D2000E860FFF76BFA044605E000BFFFF766FABC
:102D3000001B022821D828688001F7D527E02868E1
:102D4000800124D4286840F080702860E86840F052
:102D50008070E860FFF752FA044604E0FFF74EFA8D
:102D6000001B022809D828688001F7D50FE000BFB2
:102D7000FFF744FA001B022802D90320BDE8F883BC
:102D800028688001F4D4E86804490840E86000201D
:102D9000F4E70120F2E700008C809D01FCFFEEFECD
:102DA00070B5040009D0606A002540B125616561F5
:102DB000A56294F85D0040B10CE0012070BD606830
:102DC000B0F5827FF4D0E561F2E784F85C502046EC
:102DD00000F056F8022084F85D002068016821F0B8
:102DE00040010160E1684FF4E062914201D90020A6
:102DF00001E04FF48050B1F5706F02D0914200D0E5
:102E0000A562A188228901F4827102F4044211436F
:102E1000227C02F002021143227D02F001021143E2
:102E2000228B02F400721143227F02F03802114318
:102E300094F8202002F080021143228D02F4005207
:102E4000114322681160A169042202EA114194F839
:102E5000242000F4805002F01002114394F8342032
:102E600002F008021143A28902F470621143014387
:102E7000206841602566012084F85D00002070BD57
:102E800010B586B0044614216846FDF761FB13496E
:102E9000206888421FD11248016E41F480510166BA
:102EA000016E01F480510591C16C41F00101C164D2
:102EB000C06C694600F001000590E02000900220FF
:102EC00001900020029003200390052004904FF011
:102ED0009040FFF78DF806B010BD000000300140B3
:102EE000001002402DE9F84F044690F85D00984626
:102EF00016460F460025012801D00225ACE0606887
:102F00004FF0040BB0F5827F01D1A06830B394F884
:102F10005C0001282DD04FF0010984F85C90FFF788
:102F20006DF98246002F77D0002E75D084F85DB001
:102F3000002020662764A4F84460A4F84660A063DB
:102F4000A087E087E0642065E0684FF4E061884294
:102F5000206842680FD922F480520EE084F85DB0F8
:102F600013460A462046CDF8008000F049F900F0EB
:102F700078B80220FBE742F480524260A068B0F5C6
:102F8000004F09D12068026822F0400202602068E8
:102F9000026822F48042026020680268520603D46C
:102FA000026842F040020260E06888421DD941E0B8
:102FB00020688168C9070BD0007B216C0870206CE9
:102FC000401C2064B4F84600401EA4F846000CE003
:102FD000FFF714F9A0EB0A01414503D3B8F1FF3F15
:102FE00003D007E0B8F1000F04D0B4F84600002881
:102FF000DED123E003252DE020688168C9070CD0CD
:10300000C068216C0880206C801C2064B4F84600E5
:10301000401EA4F846000DE01AE0FFF7EFF8A0EB21
:103020000A01414503D3B8F1FF3F03D0E2E7B8F10D
:10303000000FDFD0B4F846000028DDD152464146EB
:10304000204600F0F7FB08B120202066206E08B172
:10305000012501E084F85D90002084F85C0028469A
:1030600085E718BCBDE8E08F2DE9F84F044690F8DD
:103070005C000026984615468A4601280CD0012798
:1030800084F85C70FFF7BAF8814694F85D00B346A7
:10309000012804D00226ACE0022000F0AEB8BAF15C
:1030A000000F79D0002D77D0032084F85D00C4F89C
:1030B00060B0C4F838A0A587E587C4F840B0A4F88C
:1030C00044B0A4F846B0C4F850B0C4F84CB0A068FE
:1030D000B0F5004F09D12068016821F0400101607E
:1030E0002068016841F48041016020680168490658
:1030F00003D4016841F040010160E068B0F5E06F81
:10310000606828D908B1012D1FD1A06B2168008803
:10311000C86006E020688168890709D5A16B098825
:10312000C160A06B801CA063E08F401EE0870CE0B4
:10313000FFF764F8A0EB0901414503D3B8F1FF3F65
:1031400003D006E0B8F1000F03D0E08F0028E1D1F2
:103150003BE003264BE008B1012D33D1E08F01287D
:10316000A06B03D921680088C8600FE0216800784F
:10317000087314E0E08725E020688168890714D58A
:10318000E18F0129A16B08D90988C160A06B801C5F
:10319000A063E08F801EEDE727E009780173A06B44
:1031A000401CA063E08F401EE4E7FFF727F8A0EB88
:1031B0000901414503D3B8F1FF3F03D0C9E7B8F196
:1031C000000FC6D0E08F0028D6D14A46414620469F
:1031D00000F06AFB08B120202066A06818B92068BA
:1031E000C16880680090206E08B1012601E084F873
:1031F0005D7084F85CB030464FE718BCBDE8E08FE6
:103200002DE9FF5F044690F85C0000260E9F1D46E6
:1032100093464FF0010901280FD04FF0010A84F8BE
:103220005CA0FEF7EBFF804694F85D006168012822
:103230000DD0B1F5827F08D103E0022004B000F088
:1032400015B9A16809B9042801D0022609E101983D
:10325000002876D0BBF1000FFBD0002DF9D094F8F8
:103260005D00042802D0052084F85D00002020665F
:10327000C4F840B0A4F84650A4F844500199A163A2
:10328000E587A587E0642065E0684FF4E061884247
:1032900001D8012D04D92068426822F4805203E04D
:1032A0002068426842F480524260206802685206F8
:1032B00003D4026842F040020260E068884260681D
:1032C00048D908B1012D3DD1A06B21680088C860A4
:1032D000A06B801CA063E08F401EE08732E0206876
:1032E000816889070FD5E18F69B1B9F1010F0AD162
:1032F000A16B0988C160A06B801CA063E08F401E99
:10330000E0874FF0000920688168C9070FD0B4F842
:10331000461061B1C068216C0880206C801C20645C
:10332000B4F84600401EA4F846004FF00109FEF72D
:1033300065FFA0EB0800B84204D3781C02D0032636
:103340008DE08AE0E08F0028C9D1B4F8460000285B
:10335000C5D177E008B1012D6DD1E08F0128A06BB8
:1033600008D921680088C860A06B801CA063E08F2A
:10337000801E07E0216800780873A06B401CA063E2
:10338000E08F401EE08756E02068816889071AD5E3
:10339000E18FC1B1B9F1010F15D1E18F0129A16B05
:1033A00007D90988C160A06B801CA063E08F801ED4
:1033B00006E009780173A06B401CA063E08F401EFB
:1033C000E0874FF0000920688168C90728D0B4F869
:1033D000461029B3B4F84610012914D9C068216CED
:1033E0000880206C801C2064B4F84600801EA4F87D
:1033F0004600B4F84600012810D82068416841F41E
:10340000805141600AE0007B216C0870206C401CF8
:103410002064B4F84600401EA4F846004FF00109AD
:10342000FEF7ECFEA0EB0800B84202D3781C02D0F5
:1034300085E7002F83D0E08F0028A5D1B4F846009F
:103440000028A1D142463946204600F02DFA10B19D
:10345000012620202066206E08B1012601E084F8B4
:103460005DA0002084F85C003046E7E630BCBDE893
:10347000C09F10B5401EB0F1807F01D3012010BD68
:103480004FF0E02460610F21601700F06DFD002017
:10349000A06107202061002010BD10B5040002D0FB
:1034A000E06F10B107E0012010BD002084F8780023
:1034B000204600F025F82420E0672068016821F00C
:1034C00001010160606A10B1204600F027FB204630
:1034D00000F002FC0128E7D02068416821F4904107
:1034E00041602068816821F02A01816020680168BC
:1034F00041F0010101602046BDE8104000F072BBC0
:1035000010B59CB00446142115A8FDF721F85421EC
:103510006846FDF71DF818492068884229D1012026
:103520000024009008946846FEF72CFF08B1FEF7CF
:103530005CFD1248016E41F480410166016E01F4A8
:1035400080411A91C16C41F00101C164C06C15A9A0
:1035500000F001001A904FF4C06015900220CDE9F0
:10356000160403201890072019904FF09040FEF7A2
:103570003FFD1CB010BD00000038014000100240AB
:10358000FEE70000F0B587B014216846FCF7E0FFC5
:103590001948C16C41F00101C164C16C01F0010125
:1035A0000591C16C41F00201C164C06C4FF09046BE
:1035B00000F002000590002210213046FEF719FEAF
:1035C0000E4F002208213846FEF713FE102000900F
:1035D00001250024CDE90154694630460394FEF7E5
:1035E00007FD08200090CDE9015469463846039450
:1035F000FEF7FEFC07B0F0BD0010024000040048DA
:10360000114810B50F4901604FF4827141600021EB
:103610004FF4E062C0E9021202220261012242611B
:10362000520282611822C0E9072107224162C0E9E3
:103630000A1201634163FFF7B3FB002801D072B6A1
:10364000FEE710BD00300140101A00200C4810B5F4
:103650000A4901604FF4E1314160002181600C2290
:10366000C160C0E904128161C16101624162FFF77A
:1036700014FF002801D072B6FEE710BD00380140EB
:10368000741A0020FEE7FEE7704700002DE9F041C4
:10369000444C05468846E0680026810728680DD01E
:1036A000E16801F00301814216D1A8B1E0686968C0
:1036B000C0F30210401C88420ED120E0012804D043
:1036C000022805D0032807D108E02168890701E016
:1036D00021684905002907DB01265FE0216889038D
:1036E00002D421684903F5E7E1686A686FF00F03C7
:1036F00021F0730103EB021211430143E1602068E2
:1037000020F080602060FEF779FD074605E000BFED
:10371000FEF774FDC01B022837D820680001F7D4DB
:10372000B8F1000F18D0B8F1010F1DD0287D4FF06F
:103730007E41400801EB4060A96840EA0120216910
:10374000194A114008432061206840F080602060E1
:10375000FEF754FD07461AE0A868297B000240EAFC
:10376000C1602169114AECE7288A1149400801EB40
:103770004050A96840EA012021690E4AE1E700BFF4
:10378000FEF73CFDC01B022801D9032606E0206895
:103790000001F5D52069A969084320613046BDE8DC
:1037A000F081000000100240FF80FFF9FF80FF075A
:1037B0000000E0FFFF809FFFF8B51C4D0646002487
:1037C000A86DC00002D5FEF7D5FD0DE0A86D40F054
:1037D0008050A865A86D00F080500090FEF7CAFDEB
:1037E000A96D21F08051A965B0F5007F04D0802E2D
:1037F00007D94FF003040AE0802E08D9A02E01D883
:1038000004E001D1022402E0702E00D10124084816
:10381000016821F0070121430160006800F0070002
:10382000A04201D00120F8BD0020F8BD00100240E8
:10383000002002402DE9F843044640684FF48276A8
:10384000154689464FF400474FF48068B04209D1CD
:10385000A068B84201D0404504D12068016821F039
:10386000400101604B46002280212046009500F077
:10387000B3F880B96068B04214D1A068B84201D0F2
:1038800040450FD14B4600224FF4C06120460095C1
:1038900000F02EF830B1206E40F0200020660320AA
:1038A000BDE8F8830020FBE7F8B515460E460B4649
:1038B0000092044600224FF4C05100F019F888B974
:1038C0003346002280212046009500F085F848B953
:1038D000334600224FF4C0612046009500F008F8FE
:1038E000002804D0206E40F0200020660320F8BDA0
:1038F0002DE9FE4F4FF0000A984617460E46044643
:103900000C9D8DF804A0FEF779FC411BA8EB010586
:10391000FEF774FC814620684FF4C06B0C300290B7
:103920002A480068C0EBC00000EB8000000D68432F
:10393000009043E05E4506D12FB9029800788DF8DB
:1039400004009DF80400B8F1FF3F37D0FEF756FCA5
:10395000A0EB0900A84203D215B1009858B32BE0A0
:103960002068416821F0E00141606068B0F5827F25
:103970000BD1A068B0F5004F02D0B0F5806F04D134
:103980002068016821F040010160A06AB0F5005F85
:1039900009D12068016821F40051016020680168A4
:1039A00041F400510160012084F85D0084F85CA0BE
:1039B000032000F00DB80025401E009020688068AC
:1039C0003040B842B6D10020F3E7000014000020D8
:1039D0001EBCBDE8E08F00002DE9F8431E4691466D
:1039E00088460446089DFEF709FC401B351AFEF781
:1039F00005FC074625480068C0F3CB30684338E033
:103A0000701C37D0FEF7FAFBC01BA84203D215B1D9
:103A1000009860B32CE02068416821F0E00141602B
:103A20006068B0F5827F0BD1A068B0F5004F02D07E
:103A3000B0F5806F04D12068016821F04001016079
:103A4000A06AB0F5005F09D12068016821F4005137
:103A500001602068016841F400510160012084F890
:103A60005D00002084F85C000320BDE8F883002599
:103A7000401E00902068816838EA010004D00021CF
:103A80004945BDD10020F0E70121F9E714000020ED
:103A90007047FEF7B9BB10B596B044216846FCF7F5
:103AA00057FD142111A8FCF753FD4FF40070FEF7E9
:103AB0002DFC08B172B6FEE7102000900120002412
:103AC00060210690CDE907410221CDE90A100C9052
:103AD00028200D900720CDE90E0168461091FEF7D1
:103AE000AFFE08B172B6FEE70F2011900320CDE9BA
:103AF00012041494042111A81594FEF789FD0028DE
:103B000001D072B6FEE716B010BD00000248016891
:103B100041F470010160704788ED00E090F82410D6
:103B2000090706D501684A68436B22F400421A432C
:103B30004A6090F82410C90706D001684A68836A71
:103B400022F400321A434A6090F82410890706D5FF
:103B500001684A68C36A22F480321A434A6090F8C6
:103B60002410490706D501684A68036B22F48022B5
:103B70001A434A6090F82410C90606D501688A687D
:103B8000836B22F480521A438A6090F824108906CD
:103B900006D501688A68C36B22F400521A438A6012
:103BA00090F82410490611D501684A68036C22F484
:103BB00080121A434A60016CB1F5801F06D101687A
:103BC0004A68436C22F4C0021A434A6090F82410F9
:103BD000090606D501684A68806C22F40022024377
:103BE0004A6070472DE9F84300260446C0F8846017
:103BF000FEF704FB8046206800684FF020050007B0
:103C00006FF07E4712D543460022290420460097D4
:103C100000F050F950B1216851E8000F20F0800009
:103C200041E80002002AF6D1E56721E0206800683B
:103C3000400722D5434600224FF4800120460097DA
:103C400000F038F9C8B1216851E8000F20F49070F5
:103C500041E80002002AF6D12068083050E8001F31
:103C600021F0010140E80012002AF5D1C4F880508B
:103C700084F878600320BDE8F883E567C4F88050D5
:103C800044F8606F666026760020F4E7016851E82A
:103C9000002F22F4907241E80023002BF6D1016836
:103CA000083151E8002F22F0010241E80023002BE7
:103CB000F5D1016E012908D1026852E8001F21F0F8
:103CC000100142E80013002BF6D12021C0F880102B
:103CD00000210166816670472DE9F04104460168C4
:103CE00080682269E6691043626900253243104307
:103CF000694B0A68694E324002430A602068416895
:103D0000E26821F44051114341602168A069994261
:103D100001D0226A10438A6822F4306202438A602A
:103D20005F4927685F488F420DD1D0F8880010F0B6
:103D3000030006D0012838D0022834D0032821D12E
:103D400035E001211FE058498F420BD1D0F888009F
:103D500010F00C0025D0042827D0082823D00C28E8
:103D600010D124E09F420DD1D0F8880010F44060BB
:103D700017D0B0F5806F18D0B0F5006F13D0B0F544
:103D8000406F14D01021494A00264FF400409F4252
:103D90002FD171B102290FD004290FD0082973D176
:103DA0000FE00021EFE70221EDE70421EBE7082116
:103DB000E9E7FEF7CFFC03E0104602E0FEF7EEFC79
:103DC000F0B3626802EB420181425DD8B0EB023F82
:103DD0005AD8010E03025008181871410023FCF74D
:103DE00061FA334AA0F5407191424DD82168C8600C
:103DF0004BE0E3694FF6EF77834228D1092943D29C
:103E0000DFE801F005080B420D4242421000FEF7C8
:103E1000A1FC06E0FEF7B0FC03E0104602E0FEF76E
:103E2000BDFC68B14100606801EB5001B1FBF0F0EE
:103E3000A0F11001B94227D84FF6F071014000E01F
:103E400023E0C0F3420001432068C1601DE009295E
:103E50001AD2DFE801F005080B190D191919100025
:103E6000FEF778FC06E0FEF787FC03E0104602E070
:103E7000FEF794FC48B1616800EB5100B0FBF1F033
:103E8000A0F11001B94205D90125A6662846E666CB
:103E9000BDE8F08180B2A9E700800040F369FFEF40
:103EA0000038014000100240004400400024F400AB
:103EB000FFFC0F002DE9F047994617460E460446D1
:103EC0004FF00008089D2FE0681C2DD0FEF796F9F2
:103ED000A0EB0900A84214D89DB1206801684907E9
:103EE00022D5C169C94309070DD4082505622046BA
:103EF000FFF7CCFEC4F8845084F878800120BDE838
:103F0000F0870320FBE7C069C04300050CD421689B
:103F10004FF4006008622046FFF7B8FE2020C4F886
:103F2000840084F87880ECE72068C06936EA0000F5
:103F300004D00020B842C7D00020E0E70120F9E714
:103F4000FEE74100080218BF04200A0E18BF40F027
:103F500001004FF07F4232EA010108BF40F0020049
:103F6000012808BF052070470907090E002804DB57
:103F700000F1E02080F80014704700F00F0000F11D
:103F8000E02080F8141D704710B510EE104A4FF075
:103F900019406849002200EB44002DED028B884255
:103FA00057D8DFED650A14F0004F60EE200A14BF09
:103FB000BEEE001AB6EE001A71EE200AFDEEE00A1F
:103FC00010EE900A00EE900AF8EEE00A9FED5B1A00
:103FD00000EEC10A9FED5A1A00EEC10ADFED590A40
:103FE0009FED591A00EE201ADFED580A40EE010A43
:103FF0009FED571A574B00F0030100EE201A21EEF7
:10400000000A7B4403EB8103D3ED000A524B7B444F
:1040100003EB810393ED001A504B41EE000A7B4401
:1040200003EB8101801091ED000A70EE800AEABB7B
:1040300000EE100AB8EEC01ADFED491A9FED490AEA
:10404000BDEC028B01EE210ABCEEC00A20EE200A74
:1040500010BD4FF0FF40A0431BD04FF0CE40B0EB5F
:10406000440F82BFB7EE000ABDEC028B10BD3E4884
:10407000B0EB440F28BF012293D20220FCF797FA3D
:1040800014F0004F15D0BDEC028BBDE8104000F0DD
:104090001FBB14F5000F02BF9FED340ABDEC028B6D
:1040A00010BDBDEC028BBDE8104000E007E000F061
:1040B00003BBBDEC028BBDE8104000F001BB00EB80
:1040C000D07359104FF07E5202EBC15100EE101A1E
:1040D000A0EB630002EBC05060EE200A00EE100A75
:1040E00020EE208A18EE100A88B118EE100AB0F1FE
:1040F000FF4F15D018EE100AFFF723FF042808BF62
:1041000000F0E6FAB0EE480ABDEC028B10BD0220CA
:10411000FCF74DFABDEC028BBDE8104000F0D8BAB8
:104120000220FCF744FABDEC028BBDE8104000F021
:10413000C7BA00000000501E3BAAB8400070313ED4
:10414000F4FD053712BB2A3D12BB2A3EFFFFFF3E9E
:10415000FFFF7F3F162400001A240000EA2300001E
:104160000000004B00007E4E0000A0850000000013
:1041700070B5D94B00242DED020B2DED108BDDE930
:104180001010984205DA20F000429A4201D809D175
:1041900041B19DED100B00F0CDB902B0BDE870400B
:1041A00000F06EBAB0F5801F26DA11430BD000285C
:1041B00013DA0120FCF7FBF900F0C2B902B0BDE848
:1041C000704000F069BA0220FCF7F1F900F040FA03
:1041D00051EC100B00F09BFC9EE06FF035049FED5E
:1041E000C00B53EC102B9DED100B51EC100B01F09C
:1041F0004BF9CDE91001084604EB2051C0F313043C
:10420000B948A1F2FF31204400F4801080F07F62B1
:1042100082F04052224301EB20559FEDB50B1192E5
:1042200053EC102B9DED100B51EC100B01F0F4FA38
:1042300041EC180BA01CC0F313009FEDAFDB9FED0A
:10424000B0EBB14E7E4403286CD296ED000B51ECDE
:10425000180B53EC102B01F0B9F81DD1002D01BF44
:1042600096ED000BBDEC108B02B070BD284601F03E
:10427000E7F841EC180B53EC1D2B01F005F941EC6C
:10428000190B53EC1E2B51EC180B01F0FDF853ECFD
:10429000192B00F0ABFD3FE09FED9D0B51EC180B8F
:1042A00053EC102B01F0F0F89FED9B1B53EC112BFE
:1042B00001F08AFA41EC190B53EC182B51EC180B56
:1042C00001F0E2F853EC192B01F0DEF841EC190B88
:1042D000002D04BF53EC192B51EC180B1AD02846B3
:1042E00001F0AEF841EC1A0B53EC1D2B01F0CCF8A9
:1042F00053EC192B01F068FA53EC182B01F08CFAEF
:1043000041EC180B53EC1E2B51EC1A0B01F0BCF8CE
:1043100053EC182B01F080FA00F018B902B041EC10
:10432000100B70BD9FED7E0B51EC180B53EC102B56
:1043300000F05CFD41EC100B51EC180B53EC102B12
:1043400000F086FE41EC190B284601F079F841ECAB
:104350001B0B53EC192B51EC190B01F095F841ECA8
:104360001A0B714853EC1A2B261851EC1A0B01F05A
:104370008BF841EC1F0B6D48C4F1510404F5D724B0
:10438000B0EE4F0AF0EE6F0A0321784400F0E4F833
:1043900053EC1F2B51EC100B01F076F841EC1C0B89
:1043A0006348B0EE4F0AF0EE6F0A0421784400F043
:1043B000D3F853EC1A2B51EC100B01F065F8344391
:1043C00053EC1C2B00F012FD41EC1C0B002C4CDDBF
:1043D0009FED510B51EC180B53EC102B01F054F8DE
:1043E00053EC182B01F050F841EC1A0B55B353EC79
:1043F0001D2B51EC1B0B01F047F841EC1D0B53EC4E
:104400001C2B51EC1A0B00F0F1FC53EC192B01F0B2
:104410003BF853EC1D2B00F0E9FC53EC1A2B01F098
:10442000D3F953EC182B01F0F7F941EC180B53ECCE
:104430001E2B51EC1B0B01F027F853EC182B01F04D
:10444000EBF969E753EC1C2B51EC1A0B00F0CEFC96
:1044500053EC192B01F018F853EC1A2B01F0B4F9B6
:1044600053EC182B01F0B0F956E735B353EC1D2B84
:1044700051EC1B0B01F008F841EC1A0B53EC1C2B10
:1044800051EC180B01F0C8F953EC192B00F0FCFFAC
:1044900053EC1A2B01F0C0F953EC182B01F0BCF9C6
:1044A00041EC180B53EC1E2B51EC1B0B00F0ECFFF6
:1044B00053EC182B01F0B0F92EE753EC1C2B51EC08
:1044C000180B01F0A9F953EC192B00F0DDFF53ECA8
:1044D000182B01F079F91FE70000F07F00000000C1
:1044E0000000000000005043645F0900000000006D
:1044F000000000000000F03F763C7935EF39EA3DDE
:104500000000E0FE422EE63F3022000000000000E6
:10451000555555555555D53F000000000000E03F6A
:10452000000000000000004086EBF9FFB220000010
:10453000A8200000BDEC088BBDEC08CBFFF72DBE1A
:10454000BDEC088BBDEC08CBFFF738BEBDEC088B8B
:10455000BDEC08CBFFF7E2BE70B504462DED028B33
:104560004D1E00EBC500B0EE408AF0EE608A90ED83
:10457000000B35F0060017D053EC182B51EC100B44
:1045800000F082FF41EC100B6D1E04EBC50090EDB6
:10459000001B51EC100B53EC112B00F027FC41ECED
:1045A000100B35F00600E7D1022D36D0042D1CD0BB
:1045B000062D1CBFBDEC028B70BD53EC182B51ECCB
:1045C000100B00F061FF94ED0A1B53EC112B00F06F
:1045D0000DFC53EC182B00F057FF94ED081B53EC27
:1045E000112B00F003FC41EC100B53EC182B51EC99
:1045F000100B00F049FF94ED061B53EC112B00F05B
:10460000F5FB53EC182B00F03FFF94ED040B53EC3B
:10461000102B00F0EBFB41EC100B53EC182B51EC82
:10462000100B00F031FF94ED021B53EC112B00F046
:10463000DDFB53EC182B00F027FF94ED001B53EC2F
:10464000112B00F0D3FBBDEC028B41EC100B70BDC5
:104650009FED070B10B553EC102B9FED070B51ECA2
:10466000100B00F0F5FC41EC100B10BD0000000039
:104670000000000000000000000000000000F03F0B
:1046800010B553EC102B51EC100B00F0AFFB41ECCC
:10469000100B10BD000000009FED050B10B553EC92
:1046A000102B51EC100B00F0D3FC41EC100B10BDA3
:1046B000000000000000000030EE000A704700001B
:1046C0009FED020A20EE000A704700000000007013
:1046D0009FED020A20EE000A704700000000001063
:1046E00030380A2801D2012070470020704710B5E9
:1046F00000EE100AFFF748FC10EE100A10BD000093
:10470000F8B51A4D1A4E00244FF40077694619483F
:1047100000F0FDF89DF8000000B31449154800F0C2
:1047200038F8B5F9000000EE100A04EB440006EB7F
:104730008000B8EEC00A80ED000AB5F9021000EE64
:10474000101AB8EEC00A80ED010AB5F9041000EEA7
:10475000101AB8EEC00A80ED020A01E0641EA4B28D
:10476000641CA4B2BC42D1D3F8BD000002000020FA
:1047700010020020FC1A00208A68002A01DCFCF7E5
:1047800079B9521E8A604A68C0B2531C4B601070DF
:1047900070471CB50C4606236A46282100F0A9F88C
:1047A0009DF8011021809DF8002002EB012121805D
:1047B0009DF8031061809DF8022002EB01216180C9
:1047C0009DF80510A1809DF8042002EB0121A18035
:1047D0001CBD38B50C46054601236A46232100F06E
:1047E00088F800280BD19DF80000012364F3C7105E
:1047F0008DF800006A462321284600F081F838BD74
:1048000038B50C46054601236A46202100F071F8B0
:1048100000280BD19DF80000012364F307108DF8E8
:1048200000006A462021284600F06AF838BD10B51D
:104830000A4601230F2100F05CF810BD38B50C4684
:10484000054601236A46232100F053F800280BD1C6
:104850009DF80000012364F305108DF800006A46FE
:104860002321284600F04CF838BD7CB50C4605469F
:1048700001236A46202100F03CF800282DD10123B5
:1048800001AA2321284600F034F8002825D124B1BC
:10489000012C0DD0022C21D011E09DF8000020F059
:1048A00008008DF800009DF8040040F0080004E0C6
:1048B0009DF8000020F0080014E08DF804000123AA
:1048C0006A462021284600F01BF8002805D1012364
:1048D00001AA2321284600F013F87CBD9DF80000B2
:1048E00040F008008DF800009DF8040020F008005A
:1048F000E3E730B4C46845682046AC4630BC604746
:1049000030B4C46805682046AC4630BC604738B552
:104910000C4601236A462721FFF7EBFF9DF80010A4
:10492000C1F3C001217038BD10B541EC100BFFF789
:104930001FFC51EC100B10BD08B500208DF80000D5
:10494000FDF76AFCFFF7A7F8FEF71CFEFEF758FE1E
:10495000FEF77CFE24482349016024494160A0F110
:10496000EC01C1602249FFF762FF2148007833283B
:1049700000D0FEE701211C48FFF72BFF01211A4858
:10498000FFF73EFF00211848FFF758FF00211648A7
:10499000FFF76BFFFDF71AF910B116A0FBF7FAFC51
:1049A0005FF00004FFF7ACFE1448FDF733F9641C18
:1049B000A4B2142CF6D312A010E000BFFFF7A0FEA3
:1049C00069460E48FCF71CFF9DF800100FA0FBF78E
:1049D000E1FC9DF800005A28F0D211A0FBF7DAFCA8
:1049E000ECE700007F4A0008FC1A00202D4A00086E
:1049F000000000206572726F720A00001002002031
:104A00006C6561726E20656E640A000073696D6981
:104A10006C6172697479203D2025640D0A000000E4
:104A2000CDA8B7E7BFDAD7E8C8FB0A002DE9FF41F8
:104A300007469DF80400144640F0C0008DF80400BD
:104A40004FF090459846002210212846FDF7D1FBF3
:104A50004FF47A763346012201A93846FEF704FB6B
:104A60003346424621463846FEF73CFA01221021E1
:104A70002846FDF7BEFB04B00020BDE8F0812DE91B
:104A8000FF4107469DF80400144640F040008DF8B1
:104A900004004FF090459846002210212846FDF76B
:104AA000A8FB4FF47A763346012201A93846FEF777
:104AB000DBFA3346424621463846FEF7D5FA012254
:104AC00010212846FDF795FB04B00020BDE8F081D9
:104AD00010B500EE100A2DED028BB1EEC08A18EE73
:104AE000100A20F00040C0F1FF40C00F0AD010EEC5
:104AF000100A20F00040C0F1FF40C00F04BF0120A9
:104B0000FBF755FD18EE100ABDEC028B10BD81F0CD
:104B10000041704780F00040704721F0004170472D
:104B200020F000407047000021F00042A2F16052E6
:104B3000B2F5801F01F0004328BFD2F17E6C51D93D
:104B4000F1EE10CA1CF4400F14D15FEAC00C43EA26
:104B5000C20202EB507008BF70475FEA4C0C40F194
:104B60000000DFF880C241F0638028BF20F0010020
:104B700001F05EB8C30001F0004343EAC20202EB59
:104B8000507008BF70471B4248BF4FEA4C0C1CF4E2
:104B9000000F08BF401CDFF84CC201F049B8C30049
:104BA00001F0004343EAC20202EB507204BF104618
:104BB00070471B4248BF4FEA4C0C1CF4000FDFF853
:104BC00024C218BF104641F0338008BF521C12F4B3
:104BD000000F08BF104601F02B8021F0004201F0C9
:104BE000004330E050EA410C04BF084670475FEADA
:104BF000125CBCF1FE0F1ED1F1EE10CA1CF4400F86
:104C0000CDD15FEAC00C9BD05FEA001C4FEAC20C1A
:104C10004CEB507C04BFC2002CEAD27C1CF4000F89
:104C200004BF4CEA0300DFF8BCC101F0018021F0B1
:104C30000042A2F16052B2F5801F4FEA410C2ADB1C
:104C40001CF5001F16D2F1EE10CA1CF4806F06D0BE
:104C50002CF0005C4CF0805CA1F140612AE04FF048
:104C60007F40DFF884C143EA500000F0E1BF08460E
:104C700001F063BA70B500F0E7FC00BF000000B9B6
:104C800088000004FFF7F3BF21F0704243EA507040
:104C900040EAC2007047F1EE10CA2CF0805C4CF084
:104CA000005C1CF4006F25D04B00B3F5001F51D3FE
:104CB00001F140611CF4400F40F07E800CF0405C3C
:104CC000C3004CF0880C11D05CF0404C10F0805FB9
:104CD0000CD0034610F1005041F10001020108BF61
:104CE00020F00050834218BF2CF0004C00F06040D0
:104CF00001F028BB1CF4400F1AD01B4248BF4FEAFA
:104D00004C0C1CF4000F13D112F1406248BF22F08A
:104D10007F424FEAC00CBCF1010F43EAC20242EBF2
:104D200050704FF0880228BF42F0804201F013BA61
:104D300012F1406248BF22F07F425FEAC00C43EAB2
:104D4000C20242EA50704FF0880218BF42F040425F
:104D500001F001BA01F0004321F00041094214D0F2
:104D6000B1FA81FCACF10B0CCCF1200201FA0CF190
:104D700020FA02F241EA02014FEA0C5200FA0CF06A
:104D8000A1EB020181EA03010FE0B0FA80F200FA20
:104D900002F002F115024FEAD0214FEA0252A1EBD4
:104DA00002014FEA405081EA0301F1EE10CA2CF0F3
:104DB000805C4CF0005C7BE762460CF0405CC3001A
:104DC0004CF0880C92D05CF0404C094248BF520035
:104DD00012F4000F8AD110F1005041F100012CF0C3
:104DE000004C83D1880000408800001010B5DFF827
:104DF00040E211F5801C13F580141EEA4C0F18BF19
:104E00001EEA440F00F0C88091EA030F48BF83F008
:104E1000004300F11685841A71EB030C05D21219B8
:104E200043EB0C03001B61EB0C014FEA1154A4EBA4
:104E3000135C23EA6E0321EA045143F48013DCF18E
:104E4000200E53D322FA0CFE10EB0E0023FA0CFEB8
:104E500041EB0E01CCF1200E03FA0EFE10EB0E001A
:104E600051F10001B1F5801FCCF1200E53D201EBBE
:104E7000045112FA0EF2BDE8104008BF7047F1EE7F
:104E800010CA1CF4400F1ED14FF0110C92F0000F0D
:104E90004CF0804C40F1CC86401C38BF5FEA4202A7
:104EA00040F0C686002814BF20F0010041F1000147
:104EB0004FEA410313F5001F24BF4CF0805CA1F1C1
:104EC000C04100F0B5BE11F0004F54BF1CF4000FFC
:104ED0001CF4800F4FF0110C4CF0804C40F0A88671
:104EE000401CC0F0A58641F10001E1E7012A43EB37
:104EF0000302ACF1200CDCF11F0E32BF4FF0000EAC
:104F000023FA0CF310EB030041EB0451B4EB115FF7
:104F1000AFD0A1EB045101F5801149085FEA3000E0
:104F200002FA0EF242EA420201EB04515FEA320257
:104F300013D0BDE81040F1EE10CA1CF4400F1AD196
:104F40004FF0110C92F0000F4CF0804CB0D5401C8B
:104F500038BF5FEA4202ABD1A4E7BDE810404FEA98
:104F6000410313F5001F38BF7047DFF8C8C0A1F137
:104F7000C04100F05DBE11F0004F54BF1CF4000FA3
:104F80001CF4800F4FF0110C4CF0804C90D1401C61
:104F90008ED341F100018BE74EF4001E3EEA41043E
:104FA00018BF3EEA430439D091EA030F48BF83F0AB
:104FB000004300F14185841A71EB030C05D21219EC
:104FC00043EB0C03001B61EB0C0152EA430E4FEA6A
:104FD0001154A4EB135C13D05FEA445E21EA045140
:104FE0001CBF23F00043ACF1010C7FF428AFBDE8F7
:104FF00010404FF0110C801841EB030100F003BD8D
:105000005FEA445EBDE8104018BF704750EA410CAB
:1050100008BF70474FF0110C00F0F5BCBDE8104020
:1050200070B500F011FB00BF64FBBE3E1100000430
:105030000000C0FF11000010491058BFC1F14041ED
:105040005B1058BFC3F140438B42EFF300807047C1
:105050002DE9C04130B4DFF864C33CEA111418BF35
:105060003CEA131400F04B8181EA03051CEA111499
:1050700044EAD57418BF1CEA131500F01D81A4EB97
:1050800005044FF0004545EAC12145EAC32341EA42
:10509000505143EA525304F17F74994204F50034AD
:1050A0004FEAC0204FEAC22208BF904200F0D080F1
:1050B0004FEA13650FF20426765D4FEA134506FBAF
:1050C00005F7C7F1807706FB07F74FEAD737A7FB4D
:1050D00003687642C8F58038A7FB06CE38BFA8F132
:1050E000010807FB08E64FF0000EA6FB028CE6FB6A
:1050F00003CEDCF1000CCEF1004E38BFAEF1010E54
:10510000A6FB0C584FF000074FF00005E6FB0E879A
:10511000A1FB08C6A0FB07CE16EB0E0645F1000565
:10512000E1FB076515F1E04E7EBFA4F580345FEA30
:1051300046066D4116F18007F1EE10CA45F10005F3
:105140004FEA172747EA05671CF4400F4FEA152579
:1051500036D14FEA4666A6F15E46B6F1085F2FD912
:10516000B4F1FE6F2CD8384624F0010C05EBC47165
:10517000BCF1FE6F01EB0C11DFF844C202D8F0BCA9
:10518000BDE8004140F2548524425CBF01F5801E19
:105190009EEAC47F02D4F0BCBDE8004140F14885DE
:1051A000244277D4DFF81CC256EA080EA1F1C041B0
:1051B00018BF4CF0804CF0BCBDE8004100F038BD99
:1051C0004FEAD22242EA43524FEAD323A7FB028698
:1051D0004FEAD02040EA415007FB03661EEA0E0F5B
:1051E0004FEAD12105FB026658BFA6EB0056B6EB8D
:1051F00000564FEA520E4EEAC37E18EB0E0E56EBE7
:10520000530E05D518EB02085E417F1C55F10005D1
:1052100056EA080E24D01CF4400FA4D014F0010F5D
:1052200018BF4FEA4C0C1CF4000F08D036429AD439
:10523000B8EB02089E417F1E75F1000593E73642E8
:1052400091D518EB02085E417F1C55F100058AE7F5
:105250004FF480154FF000074FF000064FF00008A4
:1052600024F0010C384605EBC471BCF1FE6F01EB74
:105270000C1102D8F0BCBDE800811CEA0C0F5CBF29
:1052800001F5801E9EEAC47F02D4F0BCBDE8008117
:10529000244287D556EA080C01F1C0411CBF06F034
:1052A000004C4CF0804C4CF0005CF0BC4CF0140C0A
:1052B000BDE8004100F0FEBB50EA410E0CEA1315B8
:1052C0000BD052EA430E13D000F03FFA641B86EA7B
:1052D0004606240444EAD674D3E652EA430E00F0AC
:1052E0002680F0BC81EA030101F00041BDE80081A5
:1052F000F0BCBDE80041DFF8D0C000F099BCF0BCC4
:10530000BDE8004170B500F09FF900BF097EFC3E8A
:105310001400000400F007B881EA03014FF0000018
:1053200001F00041704781EA030100F046BAF0BC89
:10533000BDE800415FF828C000F07ABCFFFDFBF932
:10534000F7F5F4F2F0EEEDEBE9E8E6E4E3E1E0DEB8
:10535000DDDBDAD8D7D5D4D3D1D0CFCDCCCBCAC82A
:10536000C7C6C5C4C2C1C0BFBEBDBCBBBAB9B8B751
:10537000B6B5B4B3B2B1B0AFAEADACABAAA9A8A844
:10538000A7A6A5A4A3A3A2A1A09F9F9E9D9C9C9B12
:105390009A999998979796959594939392919190BD
:1053A0008F8F8E8E8D8C8C8B8B8A8989888887874E
:1053B0008685858484838382828181800000FF07C3
:1053C00014000040140000101400000851EA030CFF
:1053D00011D41CF5801F00F10680994218BF704758
:1053E00008BF9042704711F5801F58BF13F5801F0A
:1053F00018D4994270471CF5801F09D550EA410C1A
:105400000EBF52EA430C8B42704708BF824270477E
:105410004FF4001C1CEB410F38BF1CEB430F01D2B3
:105420008B42704770B500F00FF900BF92244938E5
:10543000190012044FF000514FF08053FFF7FCBDEC
:1054400010F0004248BF4042B0FA80F310FA03F176
:105450000AD0C3F11D0303F580634FEA415002EB0C
:10546000035202EBD12170474FF000007047B1FAB0
:1054700081F201FA02F1C2F11D024FEA415003EB41
:10548000025303EBD1217047DFF8B4C170B51CEAB9
:10549000111E1EBF1CEA13159EEA0C0F95EA0C0F95
:1054A00000F0948081EA030421EA4C114EEAD47E94
:1054B00023EA4C13AE4441F4801143F48013A1FB62
:1054C000024CA0FB0365AEF17F7E361955EB0C054F
:1054D000A1FB034C4CF10003A0FB021C16EB0C06D5
:1054E000654153F10003094218BF46F0010613F469
:1054F000007F0BD14FEA03314FEA0530340341EA14
:10550000155140EA16506FF003020AE04FEAC3213A
:105510004FEAC520F40241EA555140EA56506FF077
:105520000202264602EB2E4201EB025585EACE71BD
:1055300027D0F1EE10CA05461CF4400C14D15FEAE6
:10554000440C18BF24F0004450F1000041F1000168
:1055500020EAD47040F2FD7C624517D2BDE870406D
:10556000DFF8E0C000F064BB5FEACE7454BF1CF407
:10557000000F1CF4800F08BF10F1010041F1000181
:10558000E8E740F2FE7C624504D270BD08BF11F42A
:10559000801FE3D0A84214BF4FF080444FF0404436
:1055A000002E08BF0024BEF1806FD8BF01F1C041BA
:1055B000A8BFA1F1C04144F0130CA8BF4CF0805C1F
:1055C000BDE8704040F3768200F032BB9EEA0C0FDB
:1055D0000CEA131518BF95EA0C0F19D091EA030FC6
:1055E00048BF4EF0010E50EA410418BF52EA43048E
:1055F00009D000F0AAF8641986EA46064FEA044E7C
:105600004EEAD67E5BE74FEACE714FF0000070BDE8
:1056100000F01AF88900013E1300000400F005B8FC
:1056200000F007B852EA430C06D081EA030100F00B
:10563000C4B850EA410CF8D15FF824C000F0F8BAC1
:105640000000FF07130000400EF1020E2EF0030EC3
:1056500001285EF8086B41EB010414F5001418BF33
:10566000B4F5801F23D3364208D4012A43EB030547
:1056700015F5001518BFB5F5801F18D301EB010C07
:105680001CF5801F16D2364204D403EB030C1CF524
:10569000801F0FD2002C10D14FEAD17C002D0CEBD3
:1056A0004C0C0CF1020C08BF4CEBD37C07E04FF024
:1056B000090C04E04FF0080C01E04FEAD37C0CEB3E
:1056C0004C0526FA05F606F00706B6F1040C06D2DC
:1056D0000EEB860CBDE870404CF0010C6047DFE833
:1056E0000CF0222413025EF804CC1B2D08D1002CF0
:1056F00088BFB4F5801F34BF4CF4804C4CF4004C90
:10570000BDE8704000F094BA002C88BFB4F5001FCB
:1057100024BF1946104670BD4FF000004FF0004105
:10572000A1F5002170BD19461046012851EB010476
:1057300018BFD4F5001484BF5EF804CC2CF0806C44
:10574000BDE8704000F25382704780B54FF0030609
:105750005C004FEA03334FEA3606640D4FEA133319
:1057600018BF43F480131CD153EA125E04F1010404
:1057700002BF13460022203C1B4202BF130B12053E
:10578000143CB3FA83FEAEF10B0ECEF1200C03FAFB
:105790000EF322FA0CFC02FA0EF2A4EB0E0443EA1A
:1057A0000C030FB416F0010F0CBC03BC18BF254648
:1057B000CED180BD80B50126F3E70808A0F5001121
:1057C0004FEA31017047000010B5DFF848E011F5ED
:1057D000801C13F580141EEA4C0F18BF1EEA440FFC
:1057E00009D091EA030F81F000413FF514AB83F03B
:1057F000004300F026B881EA030180EA020083EA50
:10580000010382EA000281EA030180EA020000F05B
:1058100004B900BF0000C0FF10B5DFF894E211F535
:10582000801C13F580141EEA4C0F18BF1EEA440FAB
:1058300000F0F38091EA030F48BF83F000433FF587
:10584000EAAA841A71EB030C07D212198CF0004CEF
:1058500043EB0C03001B61EB0C0152424FEA115465
:10586000A4EB135C23EAAE0321EA0451C3EBAE03BD
:1058700038BF5B1EDCF1200E48D322FA0CFE10EB81
:105880000E0043FA0CFE41EB0E01CCF1200E03FAA0
:105890000EFE10EB0E0051F10001CCF1200E4CD4A5
:1058A00012FA0EF201EB0451BDE8104008BF704738
:1058B000F1EE10CA1CF4400F14D14FF0120C92F00C
:1058C000000F4CF0804C40F1B381401C18BFB2F186
:1058D000004F40F0AD8100280CBF491C20F00100B2
:1058E00000F0A6B911F0004F54BF1CF4000F1CF4D7
:1058F000800F4FF0120C4CF0804C40F09981401C0E
:1059000040F0968141F1000100F092B912EB020ED5
:1059100043EB030218BF4FF0010E4EEA4202ACF116
:10592000200CDCF11E0E4BD943FA0CFE10EB0E00DE
:1059300051F1FF31CCF11E0EB2D50EF1010E12FA6B
:105940000EFE404141EB010101EB445C5FEA5C5C0F
:1059500006D95FEA0E0201EB0451BDE81040A5E74D
:105960003BD24FEAD42C11F5001124F400641AD074
:10597000B1FA81F20B3AA41AA41ED2F1200391408D
:1059800030FA03F31943904001EBCC71002C01EB8A
:105990000451BDE81040A8BF704701F1C0414FF06D
:1059A000120C00F087B8B0FA80F310FA03F101D1BD
:1059B000BDE8104019D0E41A173C4805C90AE3E7CE
:1059C00001EB0451BDE81040401E61F100015FF0A1
:1059D000FF326BE701EB045110BD491001EB04519C
:1059E000BDE810404FEA30000BE0F1EE10CA4FF076
:1059F00000010CF4400CBCF5000F08BF4FF0004153
:105A000070474FF0120C4A0008BF0042EDD0B2F5CB
:105A1000001F28BF704700F0EAB84EF4001E3EEAAF
:105A2000410418BF3EEA430434D091EA030F48BF53
:105A300083F000433FF5BFAA841A71EB030C07D231
:105A400012198CF0004C43EB0C03001B61EB0C01B2
:105A500052EA033E4FEA1154A4EB135C14D05FEA00
:105A6000445E21EA045109D023F000435242ACF1D4
:105A7000010CC3F1000338BF5B1EFBE6BDE810401C
:105A8000801A61EB0301BCE7BDE8104050EA410C0D
:105A9000B7D1AAE7BDE8104070B5FFF7D5FD00BF4C
:105AA00040DFF63E1100000483F0004110467047CD
:105AB0000000C0FFF1EE103A13F0807F1EBF01F02E
:105AC00000410020704713F4006F40F0AA800942A3
:105AD00048BF4CF4803C4FF4C0634FEA115203F1CD
